{
  "contractName": "TwitterClone",
  "abi": [
    {
      "anonymous": false,
      "inputs": [
        {
          "indexed": false,
          "internalType": "uint16",
          "name": "id",
          "type": "uint16"
        },
        {
          "indexed": false,
          "internalType": "address payable",
          "name": "author",
          "type": "address"
        },
        {
          "indexed": false,
          "internalType": "string",
          "name": "content",
          "type": "string"
        },
        {
          "indexed": false,
          "internalType": "uint256",
          "name": "date",
          "type": "uint256"
        },
        {
          "indexed": false,
          "internalType": "uint16",
          "name": "likes",
          "type": "uint16"
        }
      ],
      "name": "tweetCreated",
      "type": "event"
    },
    {
      "inputs": [],
      "name": "likeCount",
      "outputs": [
        {
          "internalType": "uint16",
          "name": "",
          "type": "uint16"
        }
      ],
      "stateMutability": "view",
      "type": "function"
    },
    {
      "inputs": [
        {
          "internalType": "uint16",
          "name": "",
          "type": "uint16"
        },
        {
          "internalType": "uint256",
          "name": "",
          "type": "uint256"
        }
      ],
      "name": "likes",
      "outputs": [
        {
          "internalType": "address",
          "name": "likesAdress",
          "type": "address"
        }
      ],
      "stateMutability": "view",
      "type": "function"
    },
    {
      "inputs": [],
      "name": "name",
      "outputs": [
        {
          "internalType": "string",
          "name": "",
          "type": "string"
        }
      ],
      "stateMutability": "view",
      "type": "function"
    },
    {
      "inputs": [],
      "name": "tweetCount",
      "outputs": [
        {
          "internalType": "uint16",
          "name": "",
          "type": "uint16"
        }
      ],
      "stateMutability": "view",
      "type": "function"
    },
    {
      "inputs": [
        {
          "internalType": "string",
          "name": "_content",
          "type": "string"
        },
        {
          "internalType": "uint256",
          "name": "_date",
          "type": "uint256"
        }
      ],
      "name": "addTweet",
      "outputs": [],
      "stateMutability": "nonpayable",
      "type": "function"
    }
  ],
  "bytecode": "0x60806040526040518060400160405280600d81526020017f747769747465725f636c6f6e65000000000000000000000000000000000000008152506000908051906020019061004f92919061009e565b506000600260006101000a81548161ffff021916908361ffff1602179055506000600460006101000a81548161ffff021916908361ffff16021790555034801561009857600080fd5b506101a2565b8280546100aa90610170565b90600052602060002090601f0160209004810192826100cc5760008555610113565b82601f106100e557805160ff1916838001178555610113565b82800160010185558215610113579182015b828111156101125782518255916020019190600101906100f7565b5b5090506101209190610124565b5090565b5b8082111561013d576000816000905550600101610125565b5090565b7f4e487b7100000000000000000000000000000000000000000000000000000000600052602260045260246000fd5b6000600282049050600182168061018857607f821691505b6020821081141561019c5761019b610141565b5b50919050565b610b03806101b16000396000f3fe608060405234801561001057600080fd5b50600436106100575760003560e01c806306fdde031461005c5780634a7782b31461007a5780636c1161bc14610098578063cef21c95146100b4578063e5a0af3d146100e4575b600080fd5b610064610102565b60405161007191906105b3565b60405180910390f35b610082610190565b60405161008f91906105f2565b60405180910390f35b6100b260048036038101906100ad919061078c565b6101a4565b005b6100ce60048036038101906100c99190610814565b61040c565b6040516100db9190610895565b60405180910390f35b6100ec610463565b6040516100f991906105f2565b60405180910390f35b6000805461010f906108df565b80601f016020809104026020016040519081016040528092919081815260200182805461013b906108df565b80156101885780601f1061015d57610100808354040283529160200191610188565b820191906000526020600020905b81548152906001019060200180831161016b57829003601f168201915b505050505081565b600260009054906101000a900461ffff1681565b60008251116101e8576040517f08c379a00000000000000000000000000000000000000000000000000000000081526004016101df9061095d565b60405180910390fd5b6000811161022b576040517f08c379a0000000000000000000000000000000000000000000000000000000008152600401610222906109c9565b60405180910390fd5b6040518060a00160405280600260009054906101000a900461ffff1661ffff1681526020013373ffffffffffffffffffffffffffffffffffffffff168152602001838152602001828152602001600460009054906101000a900461ffff1661ffff1681525060016000600260009054906101000a900461ffff1661ffff16815260200190815260200160002060008201518160000160006101000a81548161ffff021916908361ffff16021790555060208201518160000160026101000a81548173ffffffffffffffffffffffffffffffffffffffff021916908373ffffffffffffffffffffffffffffffffffffffff160217905550604082015181600101908051906020019061033d929190610477565b506060820151816002015560808201518160030160006101000a81548161ffff021916908361ffff1602179055509050507fdacc0297811d14f898ff544069f4638f42f2681378bc700f095c3434a4c34bd7600260009054906101000a900461ffff16338484600460009054906101000a900461ffff166040516103c5959493929190610a19565b60405180910390a16002600081819054906101000a900461ffff16809291906103ed90610aa2565b91906101000a81548161ffff021916908361ffff160217905550505050565b6003602052816000526040600020818154811061042857600080fd5b90600052602060002001600091509150508060000160009054906101000a900473ffffffffffffffffffffffffffffffffffffffff16905081565b600460009054906101000a900461ffff1681565b828054610483906108df565b90600052602060002090601f0160209004810192826104a557600085556104ec565b82601f106104be57805160ff19168380011785556104ec565b828001600101855582156104ec579182015b828111156104eb5782518255916020019190600101906104d0565b5b5090506104f991906104fd565b5090565b5b808211156105165760008160009055506001016104fe565b5090565b600081519050919050565b600082825260208201905092915050565b60005b83811015610554578082015181840152602081019050610539565b83811115610563576000848401525b50505050565b6000601f19601f8301169050919050565b60006105858261051a565b61058f8185610525565b935061059f818560208601610536565b6105a881610569565b840191505092915050565b600060208201905081810360008301526105cd818461057a565b905092915050565b600061ffff82169050919050565b6105ec816105d5565b82525050565b600060208201905061060760008301846105e3565b92915050565b6000604051905090565b600080fd5b600080fd5b600080fd5b600080fd5b7f4e487b7100000000000000000000000000000000000000000000000000000000600052604160045260246000fd5b61066382610569565b810181811067ffffffffffffffff821117156106825761068161062b565b5b80604052505050565b600061069561060d565b90506106a1828261065a565b919050565b600067ffffffffffffffff8211156106c1576106c061062b565b5b6106ca82610569565b9050602081019050919050565b82818337600083830152505050565b60006106f96106f4846106a6565b61068b565b90508281526020810184848401111561071557610714610626565b5b6107208482856106d7565b509392505050565b600082601f83011261073d5761073c610621565b5b813561074d8482602086016106e6565b91505092915050565b6000819050919050565b61076981610756565b811461077457600080fd5b50565b60008135905061078681610760565b92915050565b600080604083850312156107a3576107a2610617565b5b600083013567ffffffffffffffff8111156107c1576107c061061c565b5b6107cd85828601610728565b92505060206107de85828601610777565b9150509250929050565b6107f1816105d5565b81146107fc57600080fd5b50565b60008135905061080e816107e8565b92915050565b6000806040838503121561082b5761082a610617565b5b6000610839858286016107ff565b925050602061084a85828601610777565b9150509250929050565b600073ffffffffffffffffffffffffffffffffffffffff82169050919050565b600061087f82610854565b9050919050565b61088f81610874565b82525050565b60006020820190506108aa6000830184610886565b92915050565b7f4e487b7100000000000000000000000000000000000000000000000000000000600052602260045260246000fd5b600060028204905060018216806108f757607f821691505b6020821081141561090b5761090a6108b0565b5b50919050565b7f636f6e74656e7420697320656d70747900000000000000000000000000000000600082015250565b6000610947601083610525565b915061095282610911565b602082019050919050565b600060208201905081810360008301526109768161093a565b9050919050565b7f6461746520697320656d70747900000000000000000000000000000000000000600082015250565b60006109b3600d83610525565b91506109be8261097d565b602082019050919050565b600060208201905081810360008301526109e2816109a6565b9050919050565b60006109f482610854565b9050919050565b610a04816109e9565b82525050565b610a1381610756565b82525050565b600060a082019050610a2e60008301886105e3565b610a3b60208301876109fb565b8181036040830152610a4d818661057a565b9050610a5c6060830185610a0a565b610a6960808301846105e3565b9695505050505050565b7f4e487b7100000000000000000000000000000000000000000000000000000000600052601160045260246000fd5b6000610aad826105d5565b915061ffff821415610ac257610ac1610a73565b5b60018201905091905056fea26469706673582212202f15ae2228486c73081fb815927550ee2f2421f937b1c2a38e27c131ce95af5064736f6c634300080b0033",
  "immutableReferences": {},
  "source": "pragma solidity >=0.6.0;\r\ncontract TwitterClone{\r\n\r\n  string public name = 'twitter_clone';\r\n  mapping(uint=>Tweet) private tweets;\r\n  uint16 public tweetCount = 0;\r\n\r\n  struct likedAddresses{\r\n    address likesAdress;\r\n  }\r\n  mapping(uint16=>likedAddresses[]) public likes; //change the modifier later\r\n  uint16 public likeCount = 0;\r\n\r\n  struct Tweet{\r\n    uint16 id;\r\n    address payable author;\r\n    string content;\r\n    uint256 date;\r\n    uint16 likes;\r\n  }\r\n  event tweetCreated(\r\n    uint16 id,\r\n    address payable author,\r\n    string content,\r\n    uint256 date,\r\n    uint16 likes\r\n  );\r\n\r\n  function addTweet(string memory _content, uint256 _date) public {\r\n    require(bytes(_content).length>0, 'content is empty');\r\n    require(_date>0, 'date is empty');\r\n    tweets[tweetCount] = Tweet(tweetCount, payable(msg.sender), _content, _date, likeCount);\r\n    emit tweetCreated(tweetCount, payable(msg.sender), _content, _date, likeCount);\r\n    tweetCount++;\r\n  }\r\n}\r\n",
  "sourcePath": "C:\\Users\\alifa\\Downloads\\dapp\\twitter_clone\\contracts\\TwitterClone.sol",
  "compiler": {
    "name": "solc",
    "version": "0.8.11+commit.d7f03943.Emscripten.clang"
  },
  "schemaVersion": "3.4.4",
  "updatedAt": "2022-06-13T14:17:56.552Z",
  "devdoc": {
    "kind": "dev",
    "methods": {},
    "version": 1
  },
  "userdoc": {
    "kind": "user",
    "methods": {},
    "version": 1
  }
}